S00F000070726F6A6563742E737265631E
S1130000A6C0000038C200005DC2000082C2000029
S1130010B9C00000B7C00000B5C00000B3C0000004
S1130020B1C00000AFC00000ADC00000ABC0000014
S1130030A9C00000A7C00000A5C00000A3C0000024
S1130040A1C000009FC000009DC000009BC0000034
S113005099C0000000407A10F35A00A0724E1809AB
S11300600010A5D4E80000E87648170000E40B541B
S1130070020000CA9A3B000000E1F50500008096EA
S11300809800000040420F000000A086010000001C
S1130090102700000000E8030000000064000000D6
S11300A000000A00000000000100000000002C769F
S11300B0D888DC674F0823DFC1DFAE59E1B1B796BA
S11300C0E5E3E453C63AE651997696E8E6C2842617
S11300D0EB898C9B62ED407C6FFCEFBC9C9F40F2F3
S11300E0BAA56FA5F490055A2AF75C936B6CF9676F
S11300F06DC11BFCE0E40D47FEF520E6B500D0ED34
S1130100902E0300943577050080841E080000209B
S11301104E0A000000C80C333333330F986E128339
S11301201141EF8D2114893BE65516CFFEE6DB180D
S1130130D1844B381BF77C1D901DA4BBE4242032D2
S113014084725E228100C9F124ECA1E53D271124CB
S11301501FBECFE5D8E0DEBFCDBF11E0A0E6B0E022
S1130160ECE0F1E102C005900D92A432B107D9F799
S113017021E0A4E2B1E001C01D92A233B207E1F78D
S1130180A4D2C2C73DCF379A3F983E9A86B18760C2
S113019086B90895813021F487B1807E816087B962
S11301A0369A349BFECF349A84B195B10895E0E633
S11301B0F0E020EE30E061E070E0808181111BC04E
S11301C0838181110BC04AB3CB01018002C0880F27
S11301D0991F0A94E2F7842B8ABB63C09AB3AB01DC
S11301E0018002C0440F551F0A94E2F7842F8095C2
S11301F089238ABB56C08130D9F4838181110BC015
S113020047B3CB01018002C0880F991F0A94E2F71B
S1130210842B87BB46C097B3AB01018002C0440F57
S1130220551F0A94E2F7842F8095892387BB39C030
S11302308230D9F4838181110BC044B3CB01018096
S113024002C0880F991F0A94E2F7842B84BB29C04B
S113025094B3AB01018002C0440F551F0A94E2F726
S1130260842F8095892384BB1CC08330D1F483817F
S113027081110BC041B3CB01018002C0880F991FCB
S11302800A94E2F7842B81BB0CC091B3AB010180CB
S113029002C0440F551F0A94E2F7842F80958923E6
S11302A081BB3496E217F30709F087CF0895A19A2A
S11302B0A9982FEF89EF90E0215080409040E1F71A
S11302C000C00000A99A0895A1989999FECF999B1E
S11302D0FECF9999FECF089588E090E0999BFECFD8
S11302E020EA2A95F1F7999B08C020912401220F56
S11302F0330B21602093240106C020912401220F96
S1130300330B209324019999FECF019739F78091FB
S113031024010895CF93DF9300D000D01F92CDB76E
S1130320DEB760E080E0A7D180EE90E08DD160E0A0
S113033081E0A1D18BEE90E087D1B9DFC5DFCCDFBE
S113034080932A01C9DF80932701C6DF80932901A6
S1130350C3DF80932B01C0DF80932801E0912A0141
S11303600E2E000CFF0B909127019F01290F311DC8
S113037097FD3A9590912901290F311D97FD3A95E2
S113038090912B01290F311D97FD3A95482F880F25
S1130390550B2417350739F060E080E06CD182EF0B
S11303A090E052D145C04AE0BE016F5F7F4FCF015C
S11303B012D46BE080E05FD1CE01019645D188EF85
S11303C090E042D1809127014AE0BE016F5F7F4FE8
S11303D0082E000C990BFFD3CE01019635D18AEF7C
S11303E090E032D1809129014AE0BE016F5F7F4FD6
S11303F0082E000C990BEFD367E081E03CD1CE01CD
S1130400019622D188EF90E01FD180912B014AE020
S1130410BE016F5F7F4F082E000C990BDCD3CE0119
S1130420019612D18CEF90E00FD16CE081E02FD1D6
S11304300F900F900F900F900F90DF91CF91089530
S11304408BB780648BBF85B78E7F85BF85B782608D
S113045085BF8BB780688BBF85B7877F85BF85B71E
S1130460846085BF8FB780688FBF089590932D01F6
S113047080932C0108951F920F920FB60F921124AE
S11304802F933F934F935F936F937F938F939F9398
S1130490AF93BF93EF93FF93E0912C01F0912D0163
S11304A00995FF91EF91BF91AF919F918F917F91AA
S11304B06F915F914F913F912F910F900FBE0F90CD
S11304C01F9018951F920F920FB60F9211242F931D
S11304D03F934F935F936F937F938F939F93AF93C8
S11304E0BF93EF93FF93E0912E01F0912F010995B3
S11304F0FF91EF91BF91AF919F918F917F916F91F8
S11305005F914F913F912F910F900FBE0F901F90CD
S113051018951F920F920FB60F9211242F933F93A9
S11305204F935F936F937F938F939F93AF93BF93F7
S1130530EF93FF93E0913001F09131010995FF9120
S1130540EF91BF91AF919F918F917F916F915F9147
S11305504F913F912F910F900FBE0F901F901895C0
S1130560982F907F9BBBC198C39AE1EEF4E031973A
S1130570F1F700C00000C398E1EEF4E03197F1F721
S113058000C00000F0E18F9FC00111248BBBC39A0F
S113059081EE94E00197F1F700C00000C398E1EE0A
S11305A0F4E03197F1F700C00000089580EF8ABBB2
S11305B087B38E6087BB80E28BBBC39A81EE94E0E5
S11305C00197F1F700C00000C39881EE94E0019711
S11305D0F1F700C0000088E2C3DF81EE94E00197E8
S11305E0F1F700C000008CE0BBDF81EE94E00197DE
S11305F0F1F700C0000080E8B3CF0895982F907FF2
S11306009BBBC19AC39AE1EEF4E03197F1F700C0C5
S11306100000C398E1EEF4E03197F1F700C0000068
S1130620F0E18F9FC00111248BBBC39A81EE94E04B
S11306300197F1F700C00000C398E1EEF4E03197B0
S1130640F1F700C000000895CF93DF93EC01888197
S1130650882329F02196D2DF89918111FCCFDF9183
S1130660CF91089581E07CDF81EE94E00197F1F76A
S113067000C00000089520E4829FC0011124806816
S1130680860F6EDF80E18A95F1F700C0089520E4BB
S1130690829FC00111248068860F62DF80E18A9501
S11306A0F1F700C0089580912501909126010197EA
S11306B029F41092260110922501089581E090E01A
S11306C090932601809325010895BADE2FEF87EADF
S11306D091E6215080409040E1F700C0000067DDC2
S11306E065DF51DDBFDF83E593E0C0DE8091250146
S11306F090912601019751F40DDE2FEF87EA91E6E0
S1130700215080409040E1F700C00000ABDF8FE152
S11307109EE40197F1F700C00000809125019091BB
S11307202601892B59F428D011D09FEF27EA81E6BE
S1130730915020408040E1F700C0000093DF8FE13A
S11307409EE40197F1F700C00000CDCF60E081E0A6
S113075092DF8FEF90E078DF989B07C066E081E03E
S11307608ADF85E091E070CF089566E081E083DF61
S11307708DE091E069CF0895EF92FF920F931F935C
S1130780CF93DF93CDB7DEB72A970FB6F894DEBFC9
S11307900FBECDBF81E0FEDC7C0160E080E06BDF5A
S11307A085E191E051DFB70180E090E004D120E0E1
S11307B030E048EC52E48DD120E030EC4FE754E4D3
S11307C092D09B01AC0160E070E088EC92E426D00A
S11307D09E012F5F3F4F7901890122E043E0DCD184
S11307E0D7010D900020E9F7119785E0EFE1F1E0E2
S11307F001900D928A95E1F76AE080E03CDFC70141
S113080023DF2A960FB6F894DEBF0FBECDBFDF916B
S1130810CF911F910F91FF90EF9008955058BB27EF
S1130820AA270ED01CC10DD130F012D120F031F422
S11308309F3F11F41EF402C10EF4E095E7FBF8C0EB
S1130840E92F1ED180F3BA1762077307840795074F
S113085018F071F49EF536C10EF4E0950B2EBA2F04
S1130860A02D0B01B90190010C01CA01A0011124B2
S1130870FF27591B99F0593F50F4503E68F11A165E
S1130880F040A22F232F342F4427585FF3CF4695EF
S113089037952795A795F0405395C9F77EF41F1611
S11308A0BA0B620B730B840BBAF09150A1F0FF0FDB
S11308B0BB1F661F771F881FC2F70EC0BA0F621FC7
S11308C0731F841F48F4879577956795B795F795B7
S11308D09E3F08F0B3CF9395880F08F09927EE0F49
S11308E09795879508950CD0BAC0B2D040F0A9D09E
S11308F030F021F45F3F19F09BC05111E4C09EC059
S1130900BFD098F39923C9F35523B1F3951B550B25
S1130910BB27AA2762177307840738F09F5F5F4FCE
S1130920220F331F441FAA1FA9F333D00E2E3AF00F
S1130930E0E830D091505040E695001CCAF729D029
S1130940FE2F27D0660F771F881FBB1F2617370778
S11309504807AB07B0E809F0BB0B802DBF01FF27A8
S113096093585F4F2AF09E3F510568F061C0ABC0B9
S11309705F3FECF3983EDCF3869577956795B795E2
S1130980F7959F5FC9F7880F911D9695879597F9FD
S11309900895E1E0660F771F881FBB1F6217730776
S11309A08407BA0720F0621B730B840BBA0BEE1F8B
S11309B088F7E0950895E89409C097FB3EF4909574
S11309C08095709561957F4F8F4F9F4F9923A9F024
S11309D0F92F96E9BB279395F695879577956795B3
S11309E0B795F111F8CFFAF4BB0F11F460FF1BC0F7
S11309F06F5F7F4F8F4F9F4F16C0882311F096E98A
S1130A0011C0772321F09EE8872F762F05C0662337
S1130A1071F096E8862F70E060E02AF09A95660FF0
S1130A20771F881FDAF7880F9695879597F90895A9
S1130A3097F99F6780E870E060E008959FEF80EC8D
S1130A40089500240A941616170618060906089530
S1130A5000240A9412161306140605060895092E96
S1130A600394000C11F4882352F0BB0F40F4BF2B05
S1130A7011F460FF04C06F5F7F4F8F4F9F4F089545
S1130A8057FD9058440F551F59F05F3F71F047953B
S1130A90880F97FB991F61F09F3F79F08795089520
S1130AA0121613061406551FF2CF4695F1DF08C03F
S1130AB0161617061806991FF1CF8695710561055C
S1130AC008940895E894BB2766277727CB0197F904
S1130AD008950BD0C4CFB5DF28F0BADF18F0952302
S1130AE009F0A6CFABCF1124EECFCADFA0F3959FB8
S1130AF0D1F3950F50E0551F629FF001729FBB2701
S1130B00F00DB11D639FAA27F00DB11DAA1F649FAC
S1130B106627B00DA11D661F829F2227B00DA11D5F
S1130B20621F739FB00DA11D621F839FA00D611DE5
S1130B30221F749F3327A00D611D231F849F600D06
S1130B40211D822F762F6A2F11249F5750408AF03F
S1130B50E1F088234AF0EE0FFF1FBB1F661F771FCB
S1130B60881F91505040A9F79E3F510570F060CF07
S1130B70AACF5F3FECF3983EDCF3869577956795B3
S1130B80B795F795E7959F5FC1F7FE2B880F911DE9
S1130B909695879597F90895EF920F931F93CF93A6
S1130BA0DF93E80147FD02C034E001C034E1042EC4
S1130BB0000C550B57FF03C0519541955109E32E85
S1130BC0022F242FAE012AD0CE01DF91CF911F91A5
S1130BD00F91EF900895BB274A3031F4992322F402
S1130BE0BDE2909581959F4F01C0BB27FB0155271E
S1130BF0AA27880F991FAA1FA41710F0A41B839576
S1130C005051B9F7A05DAA3308F0A95DA1930097EC
S1130C1079F7B111B1931192CB012FC2A9E0B0E0E1
S1130C20E3E1F6E040C26A01122FB02E2BE3201755
S1130C3020F0FF24F394F00E02C02CE3F22E0F2DCB
S1130C4027E0AE014F5F5F4F40D1BC014981842F43
S1130C508970813031F0E1FC06C0E0FE06C090E20C
S1130C6005C09DE203C09BE201C090E05E2D50717F
S1130C7043FF3CC0911102C083E001C084E08117AE
S1130C8018F4212F281B01C020E051110BC0F601DC
S1130C90822F30E2882319F031938150FBCFC20EAA
S1130CA0D11C20E0992329F0D6019C93F6013196BA
S1130CB06F01C6010396E2FE0AC03EE4D6013C93EE
S1130CC041E411964C93119712963C9306C03EE66C
S1130CD0F601308341E641833283FC01322F40E246
S1130CE0332309F442C041933150FACF42FF44C048
S1130CF0911102C083E001C084E0811718F4212F10
S1130D00281B01C020E051110BC0F601822F30E2F4
S1130D10882319F031938150FBCFC20ED11C20E0FF
S1130D20992329F0D6019C93F60131966F01C601EF
S1130D300396E2FE0BC039E4D6013C933EE41196DF
S1130D403C93119736E412963C9307C039E6F601BA
S1130D5030833EE6318336E63283FC01322F40E2B3
S1130D60332319F041933150FBCFFC01E20FF11D05
S1130D7010828EEF9FEFA6C021E030E0911102C0F7
S1130D8020E030E0161617061CF4FB01319602C071
S1130D90E1E0F0E02E0F3F1FBB2021F0EB2DF0E04F
S1130DA0319602C0E0E0F0E02E0F3F1FE12FF0E0AB
S1130DB02E173F071CF4121B212F01C020E08E2D9B
S1130DC0887159F4F601822F30E2882319F03193A7
S1130DD08150FBCFC20ED11C20E0992329F0D6010B
S1130DE09C93F60131966F0151110BC0F601822FCD
S1130DF090E3882319F091938150FBCFC20ED11C4C
S1130E0020E00F2D060F9A81342F307144FF03C068
S1130E10913309F40150101624F4093018F008E055
S1130E2001C001E0AB0177FF02C040E050E0FB01EC
S1130E30E41BF50BA1E0B0E0AC0FBD1FEA0FFB1FF4
S1130E408EE2A82E4B01801A91080B2D10E011950B
S1130E50019511094F3FBFEF5B0721F4D601AC9216
S1130E6011966D01641775072CF08416950614F419
S1130E70818101C080E3415051093196D601119618
S1130E807D014017510724F0D6018C936701E2CF0E
S1130E906417750739F4963320F4953319F4311136
S1130EA001C081E3F6018083F701822F90E2882359
S1130EB019F091938150FBCFF701E20FF11D1082DD
S1130EC080E090E02996ECE00AC1283008F027E0A1
S1130ED03327DA01990F311D87FD91600096610572
S1130EE0710539F432602E5F3D9330E32A95E1F7C2
S1130EF008959F3F30F080387105610509F03C5F2B
S1130F003C5F3D93913008F08068911DDF93CF934F
S1130F101F930F93FF92EF92192F987F9695E92FC5
S1130F2096959695E90FFF27E255FF4F99273327AA
S1130F30EE24FF24A701E70105900894079428F400
S1130F40360FE71EF81E491F511D660F771F881FB5
S1130F50991F0694A1F70590079428F4E70EF81E4C
S1130F60491F561FC11D770F881F991F661F0694BE
S1130F70A1F70590079428F4F80E491F561FC71FC0
S1130F80D11D880F991F661F771F0694A1F705903E
S1130F90079420F4490F561FC71FD81F990F661FC7
S1130FA0771F881F0694A9F784911095177041F054
S1130FB0D695C79557954795F794E7941A95C1F731
S1130FC0E4E5F0E06894159015913591659195915B
S1130FD005907FE27395E118F10A430B560BC90B98
S1130FE0D009C0F7E10CF11E431F561FC91FD01DC5
S1130FF07EF4703311F48A95E6CFE894015030F012
S1131000080F0AF40027021708F4202F2395022F53
S11310107A3328F079E37D932A95E9F710C07D931C
S11310202A9589F606949795679537951795179499
S1131030E118F10A430B560BC90BD00998F023951C
S11310407E9173957A3308F070E37C932013B8F79C
S11310507E9170617D9330F0839571E37D9370E3AD
S11310602A95E1F71124EF90FF900F911F91CF91F2
S1131070DF91992787FD90950895DC01FC01672F86
S113108071917723E1F7329704C07C916D9370835B
S11310906291AE17BF07C8F308952F923F924F9203
S11310A05F926F927F928F929F92AF92BF92CF92F4
S11310B0DF92EF92FF920F931F93CF93DF93CDB7FD
S11310C0DEB7CA1BDB0B0FB6F894DEBF0FBECDBF75
S11310D009942A88398848885F846E847D848C8446
S11310E09B84AA84B984C884DF80EE80FD800C814F
S11310F01B81AA81B981CE0FD11D0FB6F894DEBF32
S10F11000FBECDBFED010895F894FFCFA1
S113110C00000101000101010002010000030100C3
S113111C00040100000501000006010000070100A5
S113112C01000100010101000102010001030100A1
S113113C010401010105010001060100010701017F
S113114C0200010102010101020201010203010179
S113115C020401010205010002060100020701005C
S113116C0300010003010100030201010303010157
S113117C0304010003050100030601000307010039
S113118C48756D6964697479203D0054656D7020EF
S113119C3D004572726F72002E00250043200052F0
S11311AC61696E3A005261696E696E67004E6F2018
S11311BC5261696E004D6F6973747572653A0025DE
S10711CC20202000BB
S9030000FC
