:100000000C942A000C943F000C943F000C943F0089
:100010000C943F000C943F000C943F000C943F0064
:100020000C943F000C943F000C943F000C943F0054
:100030000C943F000C943F000C943F000C943F0044
:100040000C943F000C943F000C943F000C943F0034
:100050000C943F0011241FBECFE5D8E0DEBFCDBF1A
:1000600010E0A0E6B0E0E8EFF5E002C005900D92E8
:10007000AE39B107D9F70E94C0020C94FA020C9471
:10008000000040E060E081E00E94AB0040E062E000
:1000900083E00E94AB0040E066E083E00E94AB009A
:1000A00008951F93CF93DF931F92CDB7DEB7182F1C
:1000B0008230A1F18630D1F0811147C0AE014F5F8F
:1000C0005F4F682F81E00E948D0186B390E0012E82
:1000D00002C0959587950A94E2F780FDF6CF8FE3ED
:1000E0009CE90197F1F700C000002FC0AE014F5FFF
:1000F0005F4F682F83E00E948D0180B390E0012E56
:1001000002C0959587950A94E2F780FDF6CF8FE3BC
:100110009CE90197F1F700C0000017C0AE014F5FE6
:100120005F4F682F83E00E948D0180B390E0012E25
:1001300002C0959587950A94E2F780FDF6CF8FE38C
:100140009CE90197F1F700C0000089810F90DF91D1
:10015000CF911F9108954423B9F1413009F06BC04C
:10016000813089F028F08230C9F0833011F1089590
:1001700081E090E002C0880F991F6A95E2F79AB378
:10018000892B8ABB089581E090E002C0880F991FF7
:100190006A95E2F797B3892B87BB089581E090E0D9
:1001A00002C0880F991F6A95E2F794B3892B84BB2C
:1001B000089581E090E002C0880F991F6A95E2F7E8
:1001C00091B3892B81BB0895813091F028F0823062
:1001D000D9F0833029F1089581E090E002C0880FC2
:1001E000991F6A95E2F780959AB389238ABB08958F
:1001F00081E090E002C0880F991F6A95E2F7809530
:1002000097B3892387BB089581E090E002C0880FEF
:10021000991F6A95E2F7809594B3892384BB08956A
:1002200081E090E002C0880F991F6A95E2F78095FF
:1002300091B3892381BB08954423B9F1413009F07A
:100240006BC0813089F028F08230C9F0833011F121
:10025000089581E090E002C0880F991F6A95E2F747
:100260009BB3892B8BBB089581E090E002C0880F7F
:10027000991F6A95E2F798B3892B88BB089581E0AE
:1002800090E002C0880F991F6A95E2F795B3892B19
:1002900085BB089581E090E002C0880F991F6A95A0
:1002A000E2F792B3892B82BB0895813091F028F058
:1002B0008230D9F0833029F1089581E090E002C0C6
:1002C000880F991F6A95E2F780959BB389238BBBB2
:1002D000089581E090E002C0880F991F6A95E2F7C7
:1002E000809598B3892388BB089581E090E002C08F
:1002F000880F991F6A95E2F7809595B3892385BB8E
:10030000089581E090E002C0880F991F6A95E2F796
:10031000809592B3892382BB0895813089F028F0BB
:100320008230C9F0833011F1089589B390E002C0A2
:10033000959587956A95E2F78170FA018083089513
:1003400086B390E002C0959587956A95E2F7817033
:10035000FA018083089583B390E002C09595879554
:100360006A95E2F78170FA018083089580B390E086
:1003700002C0959587956A95E2F78170FA018083AE
:100380000895CF93C82F40E061E081E00E941C01F6
:1003900040E062E081E00E941C0140E063E081E017
:1003A0000E941C018BB39C2F907F8F70892B8BBB7D
:1003B00041E063E081E00E941C018FE99FE001972A
:1003C000F1F700C0000040E063E081E00E941C0102
:1003D00020E1C29FC00111249BB39F70892B8BBB6E
:1003E00041E063E081E00E941C018FE99FE00197FA
:1003F000F1F700C0000040E063E081E00E941C01D2
:100400008FE19EE40197F1F700C00000CF910895BD
:1004100041E061E081E00E94AB0041E062E081E008
:100420000E94AB0041E063E081E00E94AB0041E04C
:1004300064E080E00E94AB0041E065E080E00E9463
:10044000AB0041E066E080E00E94AB0041E067E085
:1004500080E00E94AB002FEF81EE94E021508040BD
:100460009040E1F700C0000083E30E94C10182E3F5
:100470000E94C10188E20E94C1018CE00E94C1017A
:1004800081E00E94C10186E00E94C10182E00E94D9
:10049000C1010895CF93C82F41E061E081E00E943F
:1004A0001C0140E062E081E00E941C0140E063E04A
:1004B00081E00E941C018BB39C2F907F8F70892B51
:1004C0008BBB41E063E081E00E941C018FE99FE06B
:1004D0000197F1F700C0000040E063E081E00E9476
:1004E0001C0120E1C29FC00111249BB39F70892B86
:1004F0008BBB41E063E081E00E941C018FE99FE03B
:100500000197F1F700C0000040E063E081E00E9445
:100510001C018FE19EE40197F1F700C00000CF912C
:1005200008950F931F93CF938C01C0E003C00E94E6
:100530004A02CF5FF801EC0FF11D80818111F7CFE6
:10054000CF911F910F910895CF93DF9300D0CDB736
:10055000DEB790E8998390EC9A83E1E0F0E0EC0F4D
:10056000FD1FE80FF11D8081860F0E94C1010F90D1
:100570000F90DF91CF91089581E00E94C10108950D
:100580000E9408020E94410080E690E00E949102D1
:1005900060E081E00E94A40288E690E00E9491025F
:1005A00082E00E945100813031F40E94BC0289E750
:1005B00090E00E94910286E00E945100813031F467
:1005C0000E94BC028EE890E00E94910280E00E94AE
:1005D0005100813029F70E94BC0280E690E00E9421
:1005E000910260E081E00E94A40288E690E00E940F
:0805F0009102D6CFF894FFCF71
:1005F800425437424E593F00312959455320202053
:100608002020202032294E4F004C412074737765FA
:10061800204D486D206B6F73206F6D616B00492012
:0E0628004C4F564520594F55204D4F5245001E
:00000001FF
